:03000000020030CB
:100030007D007E0075A00075B00078007900C29147
:10004000C292D290B80005B91402D291B80005B995
:100050000A02D29212008AE82401F8B83C0A780019
:100060007400F5A0FE020071EE2401D4FEF5A0801C
:10007000D3E92401F9B93C0979007400F5B0FD8099
:10008000C3ED2401D4FDF5B080BAEAC0E0EBC0E0D6
:10009000ECC0E07A087B0A7C64DCFE309013DBF76E
:1000A000DAF3D0E0ACE0D0E0ABE0D0E0AAE00200D0
:1000B000CD7D007E0075A00075B00078007900C28B
:0E00C00092D0E0ACE0D0E0ABE0D0E0AAE022CD
:00000001FF
